{
  "_format": "hh-sol-artifact-1",
  "contractName": "Assessment",
  "sourceName": "contracts/Assessment.sol",
  "abi": [
    {
      "inputs": [
        {
          "internalType": "uint256",
          "name": "initBalance",
          "type": "uint256"
        }
      ],
      "stateMutability": "payable",
      "type": "constructor"
    },
    {
      "inputs": [
        {
          "internalType": "uint256",
          "name": "balance",
          "type": "uint256"
        },
        {
          "internalType": "uint256",
          "name": "withdrawAmount",
          "type": "uint256"
        }
      ],
      "name": "InsufficientBalance",
      "type": "error"
    },
    {
      "anonymous": false,
      "inputs": [
        {
          "indexed": false,
          "internalType": "uint256",
          "name": "amount",
          "type": "uint256"
        }
      ],
      "name": "Deposit",
      "type": "event"
    },
    {
      "anonymous": false,
      "inputs": [
        {
          "indexed": false,
          "internalType": "uint256",
          "name": "amount",
          "type": "uint256"
        }
      ],
      "name": "DoubleBalance",
      "type": "event"
    },
    {
      "anonymous": false,
      "inputs": [
        {
          "indexed": false,
          "internalType": "uint256",
          "name": "amount",
          "type": "uint256"
        }
      ],
      "name": "Withdraw",
      "type": "event"
    },
    {
      "inputs": [],
      "name": "balance",
      "outputs": [
        {
          "internalType": "uint256",
          "name": "",
          "type": "uint256"
        }
      ],
      "stateMutability": "view",
      "type": "function"
    },
    {
      "inputs": [
        {
          "internalType": "uint256",
          "name": "_amount",
          "type": "uint256"
        }
      ],
      "name": "deposit",
      "outputs": [],
      "stateMutability": "payable",
      "type": "function"
    },
    {
      "inputs": [
        {
          "internalType": "uint256",
          "name": "_doubleamount",
          "type": "uint256"
        }
      ],
      "name": "doubleBalance",
      "outputs": [],
      "stateMutability": "nonpayable",
      "type": "function"
    },
    {
      "inputs": [],
      "name": "getBalance",
      "outputs": [
        {
          "internalType": "uint256",
          "name": "",
          "type": "uint256"
        }
      ],
      "stateMutability": "view",
      "type": "function"
    },
    {
      "inputs": [],
      "name": "owner",
      "outputs": [
        {
          "internalType": "address payable",
          "name": "",
          "type": "address"
        }
      ],
      "stateMutability": "view",
      "type": "function"
    },
    {
      "inputs": [
        {
          "internalType": "uint256",
          "name": "_withdrawAmount",
          "type": "uint256"
        }
      ],
      "name": "withdraw",
      "outputs": [],
      "stateMutability": "nonpayable",
      "type": "function"
    }
  ],
  "bytecode": "0x60806040526040516108bb3803806108bb833981810160405281019061002591906100ad565b336000806101000a81548173ffffffffffffffffffffffffffffffffffffffff021916908373ffffffffffffffffffffffffffffffffffffffff16021790555080600181905550506100da565b600080fd5b6000819050919050565b61008a81610077565b811461009557600080fd5b50565b6000815190506100a781610081565b92915050565b6000602082840312156100c3576100c2610072565b5b60006100d184828501610098565b91505092915050565b6107d2806100e96000396000f3fe6080604052600436106100555760003560e01c806312065fe01461005a57806320c44c27146100855780632e1a7d4d146100ae5780638da5cb5b146100d7578063b69ef8a814610102578063b6b55f251461012d575b600080fd5b34801561006657600080fd5b5061006f610149565b60405161007c91906104f3565b60405180910390f35b34801561009157600080fd5b506100ac60048036038101906100a7919061053f565b610153565b005b3480156100ba57600080fd5b506100d560048036038101906100d0919061053f565b610259565b005b3480156100e357600080fd5b506100ec6103aa565b6040516100f991906105ad565b60405180910390f35b34801561010e57600080fd5b506101176103ce565b60405161012491906104f3565b60405180910390f35b6101476004803603810190610142919061053f565b6103d4565b005b6000600154905090565b6000600154905060008054906101000a900473ffffffffffffffffffffffffffffffffffffffff1673ffffffffffffffffffffffffffffffffffffffff163373ffffffffffffffffffffffffffffffffffffffff16146101e8576040517f08c379a00000000000000000000000000000000000000000000000000000000081526004016101df9061064b565b60405180910390fd5b81600160008282546101fa919061069a565b92505081905550818161020d919061069a565b6001541461021e5761021d6106dc565b5b7fda81fb15a93d7b0a16a1986a56a76b1630d9180a2c914fa9f2b54a970c6e5d208260405161024d91906104f3565b60405180910390a15050565b60008054906101000a900473ffffffffffffffffffffffffffffffffffffffff1673ffffffffffffffffffffffffffffffffffffffff163373ffffffffffffffffffffffffffffffffffffffff16146102e7576040517f08c379a00000000000000000000000000000000000000000000000000000000081526004016102de9061064b565b60405180910390fd5b6000600154905081600154101561033957600154826040517fcf47918100000000000000000000000000000000000000000000000000000000815260040161033092919061070b565b60405180910390fd5b816001600082825461034b9190610734565b92505081905550818161035e9190610734565b6001541461036f5761036e6106dc565b5b7f5b6b431d4476a211bb7d41c20d1aab9ae2321deee0d20be3d9fc9b1093fa6e3d8260405161039e91906104f3565b60405180910390a15050565b60008054906101000a900473ffffffffffffffffffffffffffffffffffffffff1681565b60015481565b6000600154905060008054906101000a900473ffffffffffffffffffffffffffffffffffffffff1673ffffffffffffffffffffffffffffffffffffffff163373ffffffffffffffffffffffffffffffffffffffff1614610469576040517f08c379a00000000000000000000000000000000000000000000000000000000081526004016104609061064b565b60405180910390fd5b816001600082825461047b9190610768565b92505081905550818161048e9190610768565b6001541461049f5761049e6106dc565b5b7f4d6ce1e535dbade1c23defba91e23b8f791ce5edc0cc320257a2b364e4e38426826040516104ce91906104f3565b60405180910390a15050565b6000819050919050565b6104ed816104da565b82525050565b600060208201905061050860008301846104e4565b92915050565b600080fd5b61051c816104da565b811461052757600080fd5b50565b60008135905061053981610513565b92915050565b6000602082840312156105555761055461050e565b5b60006105638482850161052a565b91505092915050565b600073ffffffffffffffffffffffffffffffffffffffff82169050919050565b60006105978261056c565b9050919050565b6105a78161058c565b82525050565b60006020820190506105c2600083018461059e565b92915050565b600082825260208201905092915050565b7f596f7520617265206e6f7420746865206f776e6572206f66207468697320616360008201527f636f756e74000000000000000000000000000000000000000000000000000000602082015250565b60006106356025836105c8565b9150610640826105d9565b604082019050919050565b6000602082019050818103600083015261066481610628565b9050919050565b7f4e487b7100000000000000000000000000000000000000000000000000000000600052601160045260246000fd5b60006106a5826104da565b91506106b0836104da565b92508282026106be816104da565b915082820484148315176106d5576106d461066b565b5b5092915050565b7f4e487b7100000000000000000000000000000000000000000000000000000000600052600160045260246000fd5b600060408201905061072060008301856104e4565b61072d60208301846104e4565b9392505050565b600061073f826104da565b915061074a836104da565b92508282039050818111156107625761076161066b565b5b92915050565b6000610773826104da565b915061077e836104da565b92508282019050808211156107965761079561066b565b5b9291505056fea2646970667358221220b3b8b0a86820192d79669746f23789ff9e5ea45bb72d47e97bc67b0e4515f12b64736f6c63430008110033",
  "linkReferences": {},
  "deployedLinkReferences": {}
}